:020000040800F2
:100000000004002047010008AD010008AF0100080E
:10001000B3010008B7010008BB01000800000000A0
:10002000000000000000000000000000BF01000808
:10003000C101000800000000C3010008C50100085C
:1000400067010008670100086701000867010008F0
:1000500067010008670100086701000867010008E0
:1000600067010008670100086701000867010008D0
:1000700067010008670100086701000867010008C0
:1000800067010008670100086701000867010008B0
:1000900067010008670100086701000867010008A0
:1000A0006701000867010008670100086701000890
:1000B0006701000867010008670100086701000880
:1000C0006701000867010008670100086701000870
:1000D00067010008D10300086701000867010008F4
:1000E0006701000867010008670100086701000850
:1000F0006701000867010008670100086701000840
:10010000670100086701000867010008670100082F
:10011000670100086701000867010008670100081F
:10012000670100086701000867010008670100080F
:10013000DFF80CD001F08EF8004800477501000888
:1001400060020020704708488047084981F308880A
:1001500007480047FEE7FEE7FEE7FEE7FEE7FEE7AB
:10016000FEE7FEE7FEE7FEE745010008600200202B
:100170003101000801F01BF800F0AFF800F0A9F819
:1001800000F00AF900F00EF9064800F01DF84F20C3
:1001900000F0DCF8432000F0D9F802E0024800F05B
:1001A00013F8FBE78096980080841E00704700BF1C
:1001B000FEE700BFFEE700BFFEE700BFFEE77047B7
:1001C0007047704770470000002106E0002101E001
:1001D0004A1CD1B20229FBDB401E0028F6D1704731
:1001E00000B585B00121880400F0E4FC012108205D
:1001F00000F0D3FC0121102000F0CFFC0320ADF86B
:10020000100001208DF8120010208DF8130004A9B1
:100210005D4800F02FFA4FF48060ADF81000182010
:100220008DF8130003208DF8120004A9564800F041
:1002300021FA4FF40060ADF8100004208DF813008F
:1002400004A9514800F016FA4FF4E1300090002064
:10025000ADF80400ADF80600ADF80800ADF80C00EC
:100260000C20ADF80A006946484800F04AFD01221A
:1002700040F22551454800F0BEFD0121434800F001
:10028000AEFD05B000BD10B5044601213E4800F0AA
:100290009CFA02213C4800F098FA41F28830FFF7BE
:1002A00093FF2146394800F005FE00BF8021374802
:1002B00000F057FE0028F9D041F28830FFF784FFA4
:1002C0000121314800F083FA02212F4800F07FFA23
:1002D00010BD10B5FFF784FF10BD00B585B001213A
:1002E00044F2050000F059FC4FF40070ADF8100026
:1002F00018208DF8130003208DF8120004A924485B
:1003000000F0B8F94FF48060ADF8100004208DF8CB
:10031000130004A91E4800F0ADF94FF416500090E8
:100320000020ADF80400ADF80600ADF80800ADF807
:100330000C000C20ADF80A006946164800F0E1FCFC
:100340000121144800F04BFD05B000BD10B5044676
:100350002146104800F0AEFD00BF80210D4800F09E
:1003600000FE0028F9D010BD10B5044640F225511A
:10037000084800F0F6FD08B9002010BD054800F05F
:100380009DFD20700120F8E7000C0140004800406E
:10039000000801400038014010B54FF4C06000F083
:1003A00023FE10BD08B525208DF8000000208DF833
:1003B00001008DF8020001208DF80300684600F06E
:1003C00018FE012240F225516A4800F014FD08BDD4
:1003D0002DE9F047B2B064226749684600F012FF89
:1003E0004FF0000A40F22551624800F0C6FDF0B31C
:1003F000604800F063FD00F0FF08B8F1FF0F02D184
:1004000000205E4908605E485C49096800F8018088
:100410005A480068401C5949086008460068594914
:10042000086056480068062821D155480078FF2802
:100430001CD1534880780A281AD15148C0780A281C
:1004400016D14F4800790A2812D1002404E01DF883
:100450000400FFF718FF641C1DF804000028F6D103
:100460000D20FFF710FF0A20FFF70DFF79E07DE078
:10047000592501242EE04248005D50B304F0FF09E5
:100480004C4604E03E48005D30304540641C062C7C
:10049000F8D33B48407842F2107148433849897894
:1004A00001EB4102C2EBC11100EBC1003449C97834
:1004B00001EBC10202EB011100EB81003049097927
:1004C00001EB810100EB41002D49497900EB010A64
:1004D00002E0641C062CCED300BF85F03205002557
:1004E000524629A119A800F0C7FE012403E019A86B
:1004F000005D4540641C19A8005D0028F7D1002468
:1005000004E019A9085DFFF7BEFE641C19A8005D90
:100510000028F6D12A20FFF7B6FE05F00F06C5F336
:1005200003170A2F05DB07F13700C0B2FFF7ABFE58
:1005300004E007F13000C0B2FFF7A5FE0A2E05DB8C
:1005400006F13700C0B2FFF79EFE04E006F130006E
:10055000C0B2FFF798FE0D20FFF795FE0A20FFF7C7
:1005600092FE0020074908600449086032B0BDE8E7
:10057000F08700000038014020140008000000202F
:1005800020000020080000202453545344492C2507
:10059000642C322C322C322C322C322C322C322C39
:1005A0003200000010B50446C549601A8C422FD0B5
:1005B00009DCC448201810D0B0F5806F16D0B0F513
:1005C000006F4AD11BE0B0F5806F2AD0B0F5006F04
:1005D00030D0B0F5406F40D135E00121042000F06B
:1005E000F6FA0021042000F0F2FA37E00121082099
:1005F00000F0EDFA0021082000F0E9FA2EE00121D8
:10060000102000F0E4FA0021102000F0E0FA25E0CC
:100610000121202000F0DBFA0021202000F0D7FA91
:100620001CE00121402000F0D2FA0021402000F01F
:10063000CEFA13E00121802000F0C9FA00218020C9
:1006400000F0C5FA0AE00121080200F0C0FA00211A
:100650004FF4807000F0BBFA00E000BF00BF10BD97
:1006600010B50121084600F0B2FA0021012000F087
:10067000AEFA10BD2DE9F04102460025002600200B
:1006800000230024002791F803C00CF00F0591F817
:1006900003C01CF0100F03D091F802C04CEA05050E
:1006A000B1F800C01CF0FF0F31D0146800202BE01F
:1006B0004FF0010C0CFA00F3B1F800C00CEA03068D
:1006C0009E4220D183004FF00F0C0CFA03F7BC437D
:1006D00005FA03FC4CEA040491F803C0BCF1280FAE
:1006E00006D14FF0010C0CFA00FCC2F814C00AE06D
:1006F00091F803C0BCF1480F05D14FF0010C0CFA82
:1007000000FCC2F810C0401C0828D1D31460B1F816
:1007100000C0BCF1FF0F34DD546800202EE000F172
:10072000080C4FF0010808FA0CF3B1F800C00CEA0D
:1007300003069E4221D183004FF00F0C0CFA03F701
:10074000BC4305FA03FC4CEA040491F803C0BCF175
:10075000280F05D100F1080C08FA0CF8C2F8148033
:1007600091F803C0BCF1480F07D100F1080C4FF01D
:10077000010808FA0CF8C2F81080401C0828CED3F3
:100780005460BDE8F0814FF6FF7101800221817055
:100790000421C17070470246002093680B4201D0CB
:1007A000012000E0002070470146886880B2704751
:1007B00002460020D3680B4201D0012000E0002057
:1007C00070470146C86880B2704701617047416157
:1007D00070470AB1016100E041617047C160704734
:1007E0004FF480320A438261816182618269826949
:1007F000704702460020344B18684FF6807318404B
:1008000040EA02100843304B186070472F49C86116
:100810007047F0B50A4600230024002100252A4E27
:100820007168C0F3034583B200F44016B6F5401F6B
:1008300008D121F07061244E766826F07066224F50
:100840007E6012E000F48016B6F5801F06D1032604
:1008500006FA05F4A14341F0706106E0460D360149
:1008600003FA06F6B14341F0706122B1460D36013C
:1008700003FA06F63143144E7160F0BD30B5002224
:100880008B071C0F0F2303FA04F20F4B08338C1055
:1008900053F8243093430C4C08348D1044F8253021
:1008A00023468C1053F824308C07240F00FA04F4EC
:1008B0002343054C08348D1044F8253030BD00002A
:1008C0000014014000F8FEBF00000140000020427B
:1008D000DA48006840F00100D849086008464068DE
:1008E000D7490840D549486008460068D5490840BE
:1008F000D24908600846006820F480200860084655
:10090000406820F4FE004860002088607047CB49B2
:10091000096821F48031C94A11601146096821F43F
:1009200080211160B0F5803F03D0B0F5802F0ED14B
:1009300006E0C249096841F48031C04A116007E00D
:10094000BE49096841F4A021BC4A116000E000BF23
:1009500000BF704710B501460022002300204A1155
:10096000012A02D1B54C236806E0022A02D1B34C19
:10097000236A01E0B14C636A01F01F020124944034
:100980001C4201D0012000E0002010BD70B5002401
:100990000025002600BF3120FFF7DCFF0646641C5F
:1009A00016B9B4F5A06FF6D13120FFF7D3FF08B127
:1009B000012500E00025284670BD014600209F4A21
:1009C000106820F0F80040EAC100106070479E49AE
:1009D0000860704702460020984B586820F47C104D
:1009E00042EA01031843954B5860704796490866E0
:1009F000704701460020914A506820F003000843E8
:100A0000506070478D48406800F00C007047014608
:100A100000208A4A506820F0F00008435060704778
:100A200001460020854A506820F4E0600843506089
:100A3000704701460020814A506820F4605040EA27
:100A4000C1005060704729B17C4A527A02437B4B07
:100A50005A7206E0794A527AC343DBB21A40774BA6
:100A60005A72704779490860704701460020734AFE
:100A7000506820F440400843506070470021744A99
:100A800011706E4A82F82010012802D0042808D183
:100A900003E001216E4A117004E005216C4A1170D7
:100AA00000E000BF00BF70476A49086070476349B3
:100AB000096A0143614A11627047674908607047DB
:100AC00030B500210022002400235C4D6D6805F044
:100AD0000C0121B1042905D0082923D105E05F4D7F
:100AE000056022E05D4D05601FE0544D6D6805F422
:100AF0007012022505EB9242504D6D6805F480346A
:100B00001CB9574D554305600BE04C4D6D6815F40D
:100B1000003F03D0524D5543056002E04F4D554311
:100B2000056002E04D4D056000BF00BF434D6D689C
:100B300005F0F00109094B4D6B5C0568DD4045602F
:100B40003E4D6D6805F4E061090A464D6B5C4568F1
:100B5000DD408560394D6D6805F46051C90A414D2D
:100B60006B5C4568DD40C560344D6D6805F44041FF
:100B7000890B3D4D6B5CC568B5FBF3F5056130BD78
:100B800029B12E4A526902432C4B5A6104E02B4A88
:100B900052698243294B5A61704729B1274A9269A9
:100BA0000243264B9A6104E0244A92698243234B14
:100BB0009A61704729B1214AD26902431F4BDA6119
:100BC00004E01E4AD26982431C4BDA61704729B1A6
:100BD0001A4AD2680243194BDA6004E0174AD26815
:100BE0008243164BDA60704729B1144A12690243F6
:100BF000124B1A6104E0114A126982430F4B1A61C9
:100C000070471A49086070470F49C86470470B491C
:100C1000C87170470948406A40F0807007494862CF
:100C2000704701460020054A92680A4201D001201F
:100C300000E00020704701498872704700100240B0
:100C40000000FFF8FFFFF6FE00004242D8004242DB
:100C500020100240800442423C04424200127A00CA
:100C600000093D000C0000201C000020400442420E
:100C700010B50446D949601A8C422BD006DCD848FE
:100C8000201813D0B0F5806F38D119E0B0F5806F1F
:100C90002AD0B0F56C4F31D101218803FFF797FFBF
:100CA00000214FF48040FFF792FF28E00121480423
:100CB000FFF79AFF00214FF40030FFF795FF1EE089
:100CC00001218804FFF790FF00214FF48020FFF7F7
:100CD0008BFF14E00121C804FFF786FF00214FF4C9
:100CE0000020FFF781FF0AE001210805FFF77CFFE4
:100CF00000214FF48010FFF777FF00E000BF00BF36
:100D000010BD2DE9F04786B005460E460024A246E8
:100D100000BF00BF00272F462C8A4CF6FF7004400E
:100D2000F08804432C82AC894EF6F3100440B0885E
:100D300031890843718908430443AC81AC8A4FF67A
:100D4000FF400440B0890443AC8201A8FFF7B8FE1D
:100D5000A448874202D1DDF810A001E0DDF80CA024
:100D60000AEBCA0000EB0A1031688900B0FBF1F809
:100D70006420B8FBF0F004012009642101FB108914
:100D8000322000EB0910B0FBF1F000F00F0004433B
:100D90002C8106B0BDE8F0874FF4165101600021A8
:100DA0008180C18001810C214181002181817047B6
:100DB00010B502460020108A4FF2FF0318400B883E
:100DC0004C8823438C882343CC88234318431082C8
:100DD00010BD0021018041808180C180704721B118
:100DE000828942F40052828104E082894DF6FF73C9
:100DF0001A4082817047F0B5034600240026002582
:100E000000201846C1F3421401F01F06012707FA1B
:100E100006F5012C01D10C3004E0022C01D1103078
:100E200000E014301AB107682F43076002E007683A
:100E3000AF430760F0BD10B51AB1838A0B438382BC
:100E400004E0838ACC43A4B22340838210BD028A8B
:100E50004FF6F0731A400282028A0A4302827047F8
:100E600082894FF2FF731A40828182890A4382810C
:100E7000704721B1828942F00202828104E08289B6
:100E80004FF6FD731A4082817047028A4FF6DF7376
:100E90001A400282028A0A430282704721B1028A02
:100EA00042F48042028204E0028A4BF6FF731A4049
:100EB00002827047C1F30802828070470146888829
:100EC000C0F308007047818941F0010181817047BA
:100ED000028BD2B20283028B42EA01220283704764
:100EE000028B02F47F420283028B0A430283704723
:100EF00021B1828A42F02002828204E0828A4FF687
:100F0000DF731A408282704721B1828A42F0100258
:100F1000828204E0828A4FF6EF731A408282704721
:100F200021B1828A42F00802828204E0828A4FF66E
:100F3000F7731A4082827047828A4FF6FB731A4019
:100F40008282828A0A438282704721B1828A42F079
:100F50000202828204E0828A4FF6FD731A40828286
:100F600070470246002013880B4201D0012000E0A8
:100F700000207047CA430280704770B502460B4696
:100F80000024002100250020C3F3421503F01F01B7
:100F9000012606FA01F1012D02D19689314006E0C1
:100FA000022D02D1168A314001E0968A31401C128E
:100FB000012606FA04F41688344011B10CB1012060
:100FC00000E0002070BD10B5002200230A120124A9
:100FD0009440A3B2DC43048010BD0000004C0040EC
:100FE00000BCFFBF0038014036490143364A11605A
:100FF000704770B5002100230F22C4784CB3324CE7
:10100000246804F4E064C4F5E0644FEA1421C1F1FB
:10101000040322FA01F2447804FA03F1847804EA22
:10102000020444EA01014FEA0111284C0678A15557
:10103000047804F01F054FF0010404FA05F4057864
:101040004FEA65154FF0E02606EB8505C5F800412F
:1010500009E0047804F01F050124AC401C4D06781B
:10106000761145F8264070BD1A4A0A4002431A4BD1
:101070001A60704741B1194A126842EA00024FF003
:10108000E023C3F8102D07E0144A126822EA000298
:101090004FF0E023C3F8102D7047042808D14FF01B
:1010A000E021096941F004014FF0E022116107E0FD
:1010B0004FF0E021096921F004014FF0E0221161B5
:1010C000704700000000FA050CED00E000E400E0CD
:1010D00080E100E080FFFF1F08ED00E010ED00E080
:1010E00000210020434A126842F48032414B1A60CA
:1010F00000BF404A126802F40030491C10B9B1F533
:10110000A06FF6D13B4A126812F4003F01D00120D3
:1011100000E00020012843D1374A126842F0100253
:10112000354B1A601A46126822F003021A601A46FA
:10113000126842F002021A602E4A52682D4B5A6021
:101140001A4652685A601A46526842F480625A60DF
:101150001A46526822F47C125A601A46526842F4C7
:10116000E8125A601A46126842F080721A6000BF94
:10117000204A126812F0007FFAD01E4A526822F00C
:1011800003021C4B5A601A46526842F002025A602F
:1011900000BF184A526802F00C02082AF9D101E097
:1011A00000BFFEE7704710B5FFF79AFF10BD10B5FE
:1011B0001048006840F001000E4908600846406889
:1011C0000E4908400B494860084600680C49084031
:1011D000084908600846006820F480200860084636
:1011E000406820F4FE00486000208860FFF7DBFFC5
:1011F00010BD000000100240002002400000FFF877
:10120000FFFFF6FE40EA01039B0703D009E008C98F
:10121000121F08C0042AFAD203E011F8013B00F8BB
:10122000013B521EF9D2704730B50B4601460020F3
:101230002022012409E021FA02F59D4205D303FA98
:1012400002F5491B04FA02F52844151EA2F1010219
:10125000F1DC30BD064C074D06E0E06840F00103CC
:1012600094E8070098471034AC42F6D3FEF764FFC9
:1012700084140008A41400080FB4084B10B504A986
:1012800002AA039800F01CF8044602A9002000F00E
:10129000C1F8204610BC5DF814FB000015140008CE
:1012A00002E008C8121F08C1002AFAD1704770472F
:1012B000002001E001C1121F002AFBD1704700008D
:1012C0002DE9FF4F89B004469B46002597E025286D
:1012D00032D10027641C4E4AB84601212378203BB6
:1012E00001FA03F0104202D00743641CF6E72078AD
:1012F0002E2819D114F8010F47F004072A280ED020
:101300006FF02F022078A0F1300109290CD808EBEA
:10131000880102EB410100EB0108641CF2E70A9826
:10132000641C50F8048B0A902078F0B3642808D02D
:10133000692806D075281FD05A460B9990476D1C16
:101340005CE00A994FF00A0901C90A91002804DA01
:10135000C0F100004FF02D0102E0390504D52B212A
:101360008DF82010012104E0F90701D02021F7E7D2
:1013700000218A4608AE0CE00A994FF00A0901C91B
:101380000A91F5E74946FFF74FFF01F1300106F8F2
:10139000011D0028F6D1ADEB060000F12009780709
:1013A00001D44FF00108002000E02CE041464A46FD
:1013B000C84500DD881A8046002706E008A85A467E
:1013C000C05D0B9990476D1C7F1C5745F6DB04E010
:1013D00030205A460B9990476D1CB8F10001A8F1D6
:1013E0000108F5DC05E016F8010B5A460B99904709
:1013F0006D1CB9F10001A9F10109F4DC641C20782D
:1014000000287FF464AF0DB02846BDE8F08F0000DF
:10141000092801000A68531C0B6010707047000017
:101420002453545344492C39303030302C322C3230
:101430002C322C322C322C322C322A353200000045
:10144000000000000000000000000000000000009C
:10145000000000000000000000000000000000008C
:10146000000000000000000000000000000000007C
:10147000000000000000000000000000000000006C
:1014800000000000A414000800000020200000005C
:10149000A0120008C4140008200000204002000030
:1014A000B012000800000000000000000000000072
:1014B00000000000010203040102030406070809FA
:0414C0000204060814
:0400000508000147A7
:00000001FF
