:020000040800F2
:1000000000040020470100088B0100088D01000852
:100010009101000895010008990100080000000006
:100020000000000000000000000000009D0100082A
:100030009F01000800000000A1010008A3010008C2
:1000400067010008670100086701000867010008F0
:1000500067010008670100086701000867010008E0
:1000600067010008670100086701000867010008D0
:1000700067010008670100086701000867010008C0
:1000800067010008670100086701000867010008B0
:1000900067010008670100086701000867010008A0
:1000A0006701000867010008670100086701000890
:1000B0006701000867010008670100086701000880
:1000C0006701000867010008670100086701000870
:1000D0006701000867010008670100086701000860
:1000E0006701000867010008670100086701000850
:1000F0006701000867010008670100086701000840
:10010000670100086701000867010008670100082F
:10011000670100086701000867010008670100081F
:10012000670100086701000867010008670100080F
:10013000DFF80CD000F0D8FE004800477501000839
:1001400020020020704708488047084981F308884A
:1001500007480047FEE7FEE7FEE7FEE7FEE7FEE7AB
:10016000FEE7FEE7FEE7FEE745010008200200206B
:100170003101000810B500F08CFE00F09CF800F092
:1001800096F801E000F0F5F8FCE7704700BFFEE7E5
:1001900000BFFEE700BFFEE700BFFEE77047704705
:1001A00070477047002106E0002101E04A1CD1B2EF
:1001B0000229FBDB401E0028F6D1704700B585B050
:1001C0000121880400F0F1FB0121082000F0E0FB90
:1001D0000121102000F0DCFB0320ADF8100001200D
:1001E0008DF8120010208DF8130004A9694800F062
:1001F00045F94FF48060ADF8100018208DF8130019
:1002000003208DF8120004A9624800F037F94FF47A
:100210000060ADF8100004208DF8130004A95D48BB
:1002200000F02CF94FF4165000900020ADF80400B7
:10023000ADF80600ADF80800ADF80C000C20ADF8E4
:100240000A006946544800F04EFC012240F2255154
:10025000514800F0C1FC01214F4800F0B1FC05B04D
:1002600000BD10B5044601214A4800F0AFF9022153
:10027000484800F0ABF941F28830FFF793FF214680
:10028000454800F007FD00BF8021434800F059FDBC
:100290000028F9D041F28830FFF784FF01213D4862
:1002A00000F096F902213B4800F092F910BD10B51C
:1002B000FFF784FF10BD00B585B0012144F20400B2
:1002C00000F066FB4FF40070ADF8100018208DF8B8
:1002D000130003208DF8120004A9304800F0CEF876
:1002E0004FF48060ADF8100004208DF8130004A9CD
:1002F0002A4800F0C3F84FF4165000900020ADF8E3
:100300000400ADF80600ADF80800ADF80C000C20B4
:10031000ADF80A006946224800F0E5FB01212048BB
:1003200000F04EFC05B000BD10B5044621461C4847
:1003300000F0B0FC00BF8021194800F002FD002849
:10034000F9D010BD10B504462021154800F0F9FC85
:1003500008B9002010BD124800F0A0FC2070104821
:1003600000F09CFC0F490968087001200E490860E4
:10037000F0E708B5002000900BE06846FFF7E2FFC9
:100380000948006828B10220FFF76BFF00200649EA
:100390000860F2E7000C01400048004000080140FE
:1003A00000380140000000200400002010B5044681
:1003B000C149601A8C422FD009DCC048201810D0E7
:1003C000B0F5806F16D0B0F5006F4AD11BE0B0F5E4
:1003D000806F2AD0B0F5006F30D0B0F5406F40D1BB
:1003E00035E00121042000F0EDFA0021042000F0A6
:1003F000E9FA37E00121082000F0E4FA00210820A2
:1004000000F0E0FA2EE00121102000F0DBFA0021DC
:10041000102000F0D7FA25E00121202000F0D2FAC8
:100420000021202000F0CEFA1CE00121402000F045
:10043000C9FA0021402000F0C5FA13E00121802014
:1004400000F0C0FA0021802000F0BCFA0AE001218F
:10045000080200F0B7FA00214FF4807000F0B2FA01
:1004600000E000BF00BF10BD10B50121084600F03C
:10047000A9FA0021012000F0A5FA10BDF0B5002274
:100480000023002400250026002791F803C00CF06B
:100490000F0291F803C01CF0100F03D091F802C0B6
:1004A0004CEA0202B1F800C01CF0FF0F31D0066820
:1004B00000242BE04FF0010C0CFA04F5B1F800C059
:1004C0000CEA0503AB4220D1A5004FF00F0C0CFA4B
:1004D00005F7BE4302FA05FC4CEA060691F803C094
:1004E000BCF1280F06D14FF0010C0CFA04FCC0F847
:1004F00014C00AE091F803C0BCF1480F05D14FF0D9
:10050000010C0CFA04FCC0F810C0641C082CD1D3F8
:100510000660B1F800C0BCF1FF0F34DD466800246E
:100520002EE004F1080C4FF0010E0EFA0CF5B1F8B4
:1005300000C00CEA0503AB4221D1A5004FF00F0C1F
:100540000CFA05F7BE4302FA05FC4CEA060691F8E0
:1005500003C0BCF1280F05D104F1080C0EFA0CFE03
:10056000C0F814E091F803C0BCF1480F07D104F1C2
:10057000080C4FF0010E0EFA0CFEC0F810E0641CDF
:10058000082CCED34660F0BD4FF6FF7101800221EA
:1005900081700421C17070470246002093680B42AD
:1005A00001D0012000E0002070470146886880B239
:1005B000704702460020D3680B4201D0012000E0C2
:1005C000002070470146C86880B2704701617047DB
:1005D000416170470AB1016100E041617047C1604B
:1005E00070474FF480320A4382618161826182697F
:1005F000826970470022324B1A684FF680731A40A6
:1006000042EA00120A432E4B1A6070472D49C86116
:100610007047F0B50022002300250024284E75689D
:10062000C0F3034482B200F44016B6F5401F08D16F
:1006300025F07065224E766826F07066204F7E6049
:1006400012E000F48016B6F5801F06D1032606FAE4
:1006500004F39D4345F0706506E0460D360102FA4D
:1006600006F6B54345F0706521B1460D360102FA34
:1006700006F63543124E7560F0BD30B500228B078B
:100680001C0F0F2303FA04F20D4B08338C1053F8A0
:10069000244094438D1043F825408C1053F82430A7
:1006A0008C07240F00FA04F42343054C08348D1002
:1006B00044F8253030BD00000014014000F8FEBFB2
:1006C0000000014000002042DA48006840F00100CC
:1006D000D849086008464068D7490840D54948606D
:1006E00008460068D5490840D249086008460068B5
:1006F00020F4802008600846406820F4FE0048602E
:10070000002088607047CB49096821F48031C94ACC
:1007100011601146096821F480211160B0F5803F15
:1007200003D0B0F5802F0ED106E0C249096841F42C
:100730008031C04A116007E0BE49096841F4A02138
:10074000BC4A116000E000BF00BF704710B5014611
:100750000022002300204A11012A02D1B54C23684F
:1007600006E0022A02D1B34C236A01E0B14C636A6D
:1007700001F01F02012494401C4201D0012000E03E
:10078000002010BD70B500240025002600BF3120D8
:10079000FFF7DCFF0646641C16B9B4F5A06FF6D16E
:1007A0003120FFF7D3FF08B1012500E000252846DE
:1007B00070BD00219F4A116821F0F80141EAC00193
:1007C000116070479E49086070470022994B5A6833
:1007D00022F47C1240EA01031A43964B5A60704798
:1007E0009749086670470021924A516821F0030139
:1007F0000143516070478F48406800F00C0070471B
:1008000000218C4A516821F0F0010143516070478A
:100810000021884A516821F4E0610143516070472A
:100820000021844A516821F4605141EAC0015160BD
:10083000704729B17F4A527A02437E4B5A7206E0D2
:100840007C4A527AC343DBB21A407A4B5A727047E1
:100850007B49D831086070470021764A516821F4FD
:1008600040410143516070470021724A20321170AB
:10087000704A82F82010012802D004280AD104E02E
:1008800001216C4A2032117005E00521694A2032AD
:10089000117000E000BF00BF70476A4908607047F0
:1008A0006449096A0143634A1162704765494439E2
:1008B0000860704730B500210022002300245D4D00
:1008C0006D6805F00C0121B1042905D0082923D158
:1008D00005E05D4D056022E05B4D05601FE0554D74
:1008E0006D6805F47012022505EB9242514D6D685A
:1008F00005F480331BB9554D554305600BE04D4D54
:100900006D6815F4003F03D0504D5543056002E07B
:100910004D4D5543056002E04B4D056000BF00BFE3
:10092000444D6D6805F0F0010909494D6C5C05689E
:10093000E54045603F4D6D6805F4E061090A444DAE
:100940006C5C4568E54085603A4D6D6805F4605122
:10095000C90A3F4D6C5C4568E540C560354D6D6822
:1009600005F44041890B3A4D10356C5CC568B5FB08
:10097000F4F5056130BD29B12E4A526902432D4B71
:100980005A6104E02B4A526982432A4B5A617047EC
:1009900029B1284A92690243264B9A6104E0254A0C
:1009A00092698243234B9A61704729B1214AD269E7
:1009B0000243204BDA6104E01E4AD26982431D4B98
:1009C000DA61704729B11B4AD2680243194BDA60D9
:1009D00004E0184AD2688243164BDA60704729B1A6
:1009E000144A12690243134B1A6104E0114A126956
:1009F0008243104B1A6170471249403908607047B2
:100A00000F49C86470470B49C87170470948406A6C
:100A100040F0807007494862704701460020054A4F
:100A200092680A4201D0012000E00020704701498D
:100A300088727047001002400000FFF8FFFFF6FECA
:100A4000000042428004424200127A0000093D0048
:100A50000800002010B50446D749601A8C422BD0FC
:100A600006DCD648201813D0B0F5806F38D119E0D5
:100A7000B0F5806F2AD0B0F56C4F31D101218803D9
:100A8000FFF7A0FF00214FF48040FFF79BFF28E015
:100A900001214804FFF7A3FF00214FF40030FFF7C6
:100AA0009EFF1EE001218804FFF799FF00214FF40B
:100AB0008020FFF794FF14E00121C804FFF78FFFA7
:100AC00000214FF40020FFF78AFF0AE0012108050A
:100AD000FFF785FF00214FF48010FFF780FF00E053
:100AE00000BF00BF10BD2DE9F04786B004460D469B
:100AF0000026002700BF00BFB246A246268A4CF659
:100B0000FF700640E88806432682A6894EF6F31059
:100B10000640A88829890843698908430643A681B5
:100B2000A68A4FF6FF400640A8890643A68201A880
:100B3000FFF7C0FE5446A248824501D1049F00E061
:100B4000039F07EBC70000EB071029688900B0FB83
:100B5000F1F86420B8FBF0F006013009642101FBD4
:100B60001089322101EB09106421B0FBF1F000F093
:100B70000F000643268106B0BDE8F0874FF41651FA
:100B8000016000218180C18001810C21418100210F
:100B90008181704710B50022028A4FF2FF031A408C
:100BA0000B884C8823438C882343CC8823431A43E7
:100BB000028210BD0021018041808180C180704788
:100BC00021B1828942F40052828104E082894DF68B
:100BD000FF731A4082817047F0B50024002500267B
:100BE00000230346C1F3421401F01F05012707FA51
:100BF00005F6012C01D10C3304E0022C01D1103395
:100C000000E014331AB11F6837431F6002E01F6809
:100C1000B7431F60F0BD10B51AB1838A0B438382BE
:100C200004E0838ACC43A4B22340838210BD028AAD
:100C30004FF6F0731A400282028A0A43028270471A
:100C400082894FF2FF731A40828182890A4382812E
:100C5000704721B1828942F00202828104E08289D8
:100C60004FF6FD731A4082817047028A4FF6DF7398
:100C70001A400282028A0A430282704721B1028A24
:100C800042F48042028204E0028A4BF6FF731A406B
:100C900002827047C1F3080282807047014688884B
:100CA000C0F308007047818941F0010181817047DC
:100CB000028BD2B20283028B42EA01220283704786
:100CC000028B02F47F420283028B0A430283704745
:100CD00021B1828A42F02002828204E0828A4FF6A9
:100CE000DF731A408282704721B1828A42F010027B
:100CF000828204E0828A4FF6EF731A408282704744
:100D000021B1828A42F00802828204E0828A4FF690
:100D1000F7731A4082827047828A4FF6FB731A403B
:100D20008282828A0A438282704721B1828A42F09B
:100D30000202828204E0828A4FF6FD731A408282A8
:100D400070470246002013880B4201D0012000E0CA
:100D500000207047CA430280704770B502460023E6
:100D6000002400250020C1F3421501F01F040126D4
:100D700006FA04F4012D02D19689344006E0022DD2
:100D800002D1168A344001E0968A34400B120126C3
:100D900006FA03F31688334014B10BB1012000E0CA
:100DA000002070BD10B5002200230A1201249440D7
:100DB000A3B2DC43048010BD004C004000BCFFBF68
:100DC0000038014000200021434A126842F480327A
:100DD000414B1A6000BF404A126802F40031401CC7
:100DE00011B9B0F5A06FF6D13B4A126812F4003F7A
:100DF00001D0012100E00021012943D1374A1268C6
:100E000042F01002354B1A601A46126822F00302B3
:100E10001A601A46126842F002021A602E4A52689C
:100E20002D4B5A601A4652685A601A46526842F46C
:100E300080625A601A46526822F47C125A601A463E
:100E4000526842F4E8125A601A46126842F0807200
:100E50001A6000BF204A126812F0007FFAD01E4AC2
:100E6000526822F003021C4B5A601A46526842F044
:100E700002025A6000BF184A526802F00C02082AA7
:100E8000F9D101E000BFFEE7704710B5FFF79AFF08
:100E900010BD10B51048006840F001000E49086010
:100EA000084640680E4908400B49486008460068FB
:100EB0000C490840084908600846006820F4802072
:100EC00008600846406820F4FE0048600020886002
:100ED000FFF7DBFF10BD00000010024000200240C1
:100EE0000000FFF8FFFFF6FE064C074D06E0E06845
:100EF00040F0010394E8070098471034AC42F6D361
:100F0000FFF71AF92C0F00084C0F000802E008C880
:100F1000121F08C1002AFAD170477047002001E073
:100F200001C1121F002AFBD1704700004C0F0008BE
:100F3000000000201C0000000C0F0008680F0008D3
:100F40001C000020040200001C0F0008000000002C
:100F5000000000000000000001020304010203047D
:080F6000060708090204060857
:0400000508000147A7
:00000001FF
